{
  "contractName": "ProofOfOwnership",
  "abi": [
    {
      "constant": false,
      "inputs": [
        {
          "name": "hashing",
          "type": "string"
        },
        {
          "name": "owner",
          "type": "string"
        },
        {
          "name": "ipfsHash",
          "type": "string"
        },
        {
          "name": "ipfsHashEncrypted",
          "type": "string"
        },
        {
          "name": "encryptedKey",
          "type": "string"
        }
      ],
      "name": "saveProof",
      "outputs": [],
      "payable": false,
      "stateMutability": "nonpayable",
      "type": "function",
      "signature": "0xa3ae32ff"
    },
    {
      "constant": true,
      "inputs": [
        {
          "name": "hashing",
          "type": "string"
        }
      ],
      "name": "getProof",
      "outputs": [
        {
          "name": "",
          "type": "string"
        },
        {
          "name": "",
          "type": "uint256"
        }
      ],
      "payable": false,
      "stateMutability": "view",
      "type": "function",
      "signature": "0xd57763a1"
    },
    {
      "constant": false,
      "inputs": [
        {
          "name": "hashing",
          "type": "string"
        },
        {
          "name": "encryptedKey",
          "type": "string"
        },
        {
          "name": "user",
          "type": "string"
        }
      ],
      "name": "registerUsageRights",
      "outputs": [],
      "payable": false,
      "stateMutability": "nonpayable",
      "type": "function",
      "signature": "0xee4cfccb"
    }
  ],
  "bytecode": "0x608060405234801561001057600080fd5b506112d8806100206000396000f3fe608060405260043610610057576000357c0100000000000000000000000000000000000000000000000000000000900463ffffffff168063a3ae32ff1461005c578063d57763a114610380578063ee4cfccb146104c8575b600080fd5b34801561006857600080fd5b5061037e600480360360a081101561007f57600080fd5b810190808035906020019064010000000081111561009c57600080fd5b8201836020820111156100ae57600080fd5b803590602001918460018302840111640100000000831117156100d057600080fd5b91908080601f016020809104026020016040519081016040528093929190818152602001838380828437600081840152601f19601f8201169050808301925050505050505091929192908035906020019064010000000081111561013357600080fd5b82018360208201111561014557600080fd5b8035906020019184600183028401116401000000008311171561016757600080fd5b91908080601f016020809104026020016040519081016040528093929190818152602001838380828437600081840152601f19601f820116905080830192505050505050509192919290803590602001906401000000008111156101ca57600080fd5b8201836020820111156101dc57600080fd5b803590602001918460018302840111640100000000831117156101fe57600080fd5b91908080601f016020809104026020016040519081016040528093929190818152602001838380828437600081840152601f19601f8201169050808301925050505050505091929192908035906020019064010000000081111561026157600080fd5b82018360208201111561027357600080fd5b8035906020019184600183028401116401000000008311171561029557600080fd5b91908080601f016020809104026020016040519081016040528093929190818152602001838380828437600081840152601f19601f820116905080830192505050505050509192919290803590602001906401000000008111156102f857600080fd5b82018360208201111561030a57600080fd5b8035906020019184600183028401116401000000008311171561032c57600080fd5b91908080601f016020809104026020016040519081016040528093929190818152602001838380828437600081840152601f19601f8201169050808301925050505050505091929192905050506106be565b005b34801561038c57600080fd5b50610446600480360360208110156103a357600080fd5b81019080803590602001906401000000008111156103c057600080fd5b8201836020820111156103d257600080fd5b803590602001918460018302840111640100000000831117156103f457600080fd5b91908080601f016020809104026020016040519081016040528093929190818152602001838380828437600081840152601f19601f820116905080830192505050505050509192919290505050610914565b6040518080602001838152602001828103825284818151815260200191508051906020019080838360005b8381101561048c578082015181840152602081019050610471565b50505050905090810190601f1680156104b95780820380516001836020036101000a031916815260200191505b50935050505060405180910390f35b3480156104d457600080fd5b506106bc600480360360608110156104eb57600080fd5b810190808035906020019064010000000081111561050857600080fd5b82018360208201111561051a57600080fd5b8035906020019184600183028401116401000000008311171561053c57600080fd5b91908080601f016020809104026020016040519081016040528093929190818152602001838380828437600081840152601f19601f8201169050808301925050505050505091929192908035906020019064010000000081111561059f57600080fd5b8201836020820111156105b157600080fd5b803590602001918460018302840111640100000000831117156105d357600080fd5b91908080601f016020809104026020016040519081016040528093929190818152602001838380828437600081840152601f19601f8201169050808301925050505050505091929192908035906020019064010000000081111561063657600080fd5b82018360208201111561064857600080fd5b8035906020019184600183028401116401000000008311171561066a57600080fd5b91908080601f016020809104026020016040519081016040528093929190818152602001838380828437600081840152601f19601f820116905080830192505050505050509192919290505050610dee565b005b6000856040518082805190602001908083835b6020831015156106f657805182526020820191506020810190506020830392506106d1565b6001836020036101000a038019825116818451168082178552505050505050905001915050908152602001604051809103902060030160009054906101000a900460ff16156107ad576040517f08c379a00000000000000000000000000000000000000000000000000000000081526004018080602001828103825260188152602001807f54686520502e4f2e4f2e20616c7265616479206578697374000000000000000081525060200191505060405180910390fd5b60e060405190810160405280868152602001858152602001428152602001600115158152602001848152602001838152602001828152506000866040518082805190602001908083835b60208310151561081c57805182526020820191506020810190506020830392506107f7565b6001836020036101000a0380198251168184511680821785525050505050509050019150509081526020016040518091039020600082015181600001908051906020019061086b9291906111c7565b5060208201518160010190805190602001906108889291906111c7565b506040820151816002015560608201518160030160006101000a81548160ff02191690831515021790555060808201518160040190805190602001906108cf9291906111c7565b5060a08201518160050190805190602001906108ec9291906111c7565b5060c08201518160060190805190602001906109099291906111c7565b509050505050505050565b6060600080836040518082805190602001908083835b60208310151561094f578051825260208201915060208101905060208303925061092a565b6001836020036101000a038019825116818451168082178552505050505050905001915050908152602001604051809103902060030160009054906101000a900460ff161515610a07576040517f08c379a00000000000000000000000000000000000000000000000000000000081526004018080602001828103825260188152602001807f54686520502e4f2e4f2e20646f65736e2774206578697374000000000000000081525060200191505060405180910390fd5b610a0f611247565b6000846040518082805190602001908083835b602083101515610a475780518252602082019150602081019050602083039250610a22565b6001836020036101000a038019825116818451168082178552505050505050905001915050908152602001604051809103902060e06040519081016040529081600082018054600181600116156101000203166002900480601f016020809104026020016040519081016040528092919081815260200182805460018160011615610100020316600290048015610b1f5780601f10610af457610100808354040283529160200191610b1f565b820191906000526020600020905b815481529060010190602001808311610b0257829003601f168201915b50505050508152602001600182018054600181600116156101000203166002900480601f016020809104026020016040519081016040528092919081815260200182805460018160011615610100020316600290048015610bc15780601f10610b9657610100808354040283529160200191610bc1565b820191906000526020600020905b815481529060010190602001808311610ba457829003601f168201915b50505050508152602001600282015481526020016003820160009054906101000a900460ff16151515158152602001600482018054600181600116156101000203166002900480601f016020809104026020016040519081016040528092919081815260200182805460018160011615610100020316600290048015610c885780601f10610c5d57610100808354040283529160200191610c88565b820191906000526020600020905b815481529060010190602001808311610c6b57829003601f168201915b50505050508152602001600582018054600181600116156101000203166002900480601f016020809104026020016040519081016040528092919081815260200182805460018160011615610100020316600290048015610d2a5780601f10610cff57610100808354040283529160200191610d2a565b820191906000526020600020905b815481529060010190602001808311610d0d57829003601f168201915b50505050508152602001600682018054600181600116156101000203166002900480601f016020809104026020016040519081016040528092919081815260200182805460018160011615610100020316600290048015610dcc5780601f10610da157610100808354040283529160200191610dcc565b820191906000526020600020905b815481529060010190602001808311610daf57829003601f168201915b5050505050815250509050806020015181604001518191509250925050915091565b6000836040518082805190602001908083835b602083101515610e265780518252602082019150602081019050602083039250610e01565b6001836020036101000a038019825116818451168082178552505050505050905001915050908152602001604051809103902060030160009054906101000a900460ff161515610ede576040517f08c379a00000000000000000000000000000000000000000000000000000000081526004018080602001828103825260188152602001807f54686520502e4f2e4f2e20646f65736e2774206578697374000000000000000081525060200191505060405180910390fd5b6000836040518082805190602001908083835b602083101515610f165780518252602082019150602081019050602083039250610ef1565b6001836020036101000a0380198251168184511680821785525050505050509050019150509081526020016040518091039020600701816040518082805190602001908083835b602083101515610f825780518252602082019150602081019050602083039250610f5d565b6001836020036101000a038019825116818451168082178552505050505050905001915050908152602001604051809103902060030160009054906101000a900460ff161561105f576040517f08c379a00000000000000000000000000000000000000000000000000000000081526004018080602001828103825260218152602001807f416c726561647920726567697374657220666f7220757361676520726967687481526020017f730000000000000000000000000000000000000000000000000000000000000081525060400191505060405180910390fd5b608060405190810160405280828152602001838152602001428152602001600115158152506000846040518082805190602001908083835b6020831015156110bc5780518252602082019150602081019050602083039250611097565b6001836020036101000a0380198251168184511680821785525050505050509050019150509081526020016040518091039020600701826040518082805190602001908083835b6020831015156111285780518252602082019150602081019050602083039250611103565b6001836020036101000a038019825116818451168082178552505050505050905001915050908152602001604051809103902060008201518160000190805190602001906111779291906111c7565b5060208201518160010190805190602001906111949291906111c7565b506040820151816002015560608201518160030160006101000a81548160ff021916908315150217905550905050505050565b828054600181600116156101000203166002900490600052602060002090601f016020900481019282601f1061120857805160ff1916838001178555611236565b82800160010185558215611236579182015b8281111561123557825182559160200191906001019061121a565b5b5090506112439190611287565b5090565b60e0604051908101604052806060815260200160608152602001600081526020016000151581526020016060815260200160608152602001606081525090565b6112a991905b808211156112a557600081600090555060010161128d565b5090565b9056fea165627a7a72305820ca6641fc6f705e78307bb4ad6a5fd62142b20f3ae271311e018eef6e98dc74020029",
  "source": "pragma solidity ^0.5.0;\n\ncontract ProofOfOwnership {\n    struct usage {\n        string user;\n        string encryptedKey;\n        uint date;\n        bool isValue;\n    }\n    \n    // Definition of a proof of ownership.\n    struct proof { \n        string hashing; // The MD5 hash of the image\n        string owner; // The owner \n        uint date;  \n        bool isValue;\n        string ipfsHash; // IPFS hash of the wetrmarked image\n        string ipfsHashEncrypted; // IPFS hash of the encrypted image\n        string encryptedKey; // The encrypted key used to encrypt the original file\n        mapping (string => usage) usageRights;       \n    }\n\n    // The map that stores all the proof of ownership.\n    mapping (string => proof) proofMap;\n\n    /**\n        Save a new proof of ownership.\n    */\n    function saveProof(\n        string memory hashing, \n        string memory owner, \n        string memory ipfsHash, \n        string memory ipfsHashEncrypted, \n        string memory encryptedKey) \n    public  {\n        if (proofMap[hashing].isValue)\n        {\n            revert(\"The P.O.O. already exist\");\n        }\n        proofMap[hashing] = proof(hashing, owner, now, true, ipfsHash, ipfsHashEncrypted, encryptedKey);\n    } \n\n    /**\n        Get a proof of ownership from its hashing.\n     */\n    function getProof(string memory hashing) public view returns (string memory, uint) {\n        if (!proofMap[hashing].isValue)\n        {\n            revert(\"The P.O.O. doesn't exist\");\n        } \n        proof memory p = proofMap[hashing];\n        return (p.owner, p.date);\n    } \n\n    /**\n        Register usage rights.\n    */\n    function registerUsageRights(\n        string memory hashing, \n        string memory encryptedKey, \n        string memory user) \n    public  {\n        if (!proofMap[hashing].isValue)\n        {\n            revert(\"The P.O.O. doesn't exist\");\n        }\n        if (proofMap[hashing].usageRights[user].isValue)\n        {\n            revert(\"Already register for usage rights\");\n        }\n        proofMap[hashing].usageRights[user] = usage(user, encryptedKey, now, true);\n    }\n}",
  "sourcePath": "/Users/Sonia/Projets/BlockChain/proof-of-ownership/blockchain/contracts/ProofOfOwnership.sol",
  "compiler": {
    "name": "solc",
    "version": "0.5.0+commit.1d4f565a.Emscripten.clang"
  },
  "schemaVersion": "3.0.2",
  "updatedAt": "2019-02-24T05:04:33.370Z",
  "devdoc": {
    "methods": {}
  },
  "userdoc": {
    "methods": {
      "getProof(string)": {
        "notice": "Get a proof of ownership from its hashing."
      },
      "registerUsageRights(string,string,string)": {
        "notice": "Register usage rights."
      },
      "saveProof(string,string,string,string,string)": {
        "notice": "Save a new proof of ownership."
      }
    }
  }
}